:020000040800F2
:1000000000000120FD280208F91E0208FD1E02085A
:10001000011F0208051F0208091F02080000000056
:100020000000000000000000000000000D1F02089A
:10003000111F020800000000151F0208191F020806
:1000400045290208452902084529020845290208D0
:1000500045290208452902084529020845290208C0
:1000600045290208452902084529020845290208B0
:1000700045290208452902084529020845290208A0
:100080004529020845290208452902084529020890
:100090004529020845290208452902084529020880
:1000A0004529020845290208452902084529020870
:1000B0004529020845290208452902084529020860
:1000C0004529020845290208452902084529020850
:1000D0004529020845290208452902084529020840
:1000E0004529020845290208452902084529020830
:1000F0004529020845290208452902084529020820
:10010000452902084529020845290208452902080F
:1001100045290208452902084529020845290208FF
:1001200045290208452902084529020845290208EF
:1001300000000000000000000000000000000000BF
:1001400000000000000000000000000000000000AF
:10015000000000000000000000000000000000009F
:10016000000000000000000000000000000000008F
:10017000000000000000000000000000000000007F
:10018000000000000000000000000000000000006F
:10019000000000000000000000000000000000005F
:1001A000000000000000000000000000000000004F
:1001B000000000000000000000000000000000003F
:1001C000000000000000000000000000000000002F
:1001D000000000000000000000000000000000001F
:0401E0005FF8E0F1F3
:1001E80010B5054C237833B9044B13B10448AFF369
:1001F80000800123237010BD400B00200000000088
:100208000CAA0208084B10B51BB108490848AFF3FF
:1002180000800848036803B910BD074B002BFBD0CA
:10022800BDE81040184700BF00000000440B002044
:100238000CAA02083C0B00200000000080B584B026
:1002480000AF786039600A4A3968786818F0C2FCEB
:100258004FF0FF31786817F0BDFAF860012178682F
:1002680017F006FCFB6818461037BD4680BD00BF76
:100278003CAA020890B585B000AFF860B9607A6012
:10028800786821F09FF803460C461A462346F8681A
:1002980016F088FEBB68002B02DABB68013B00E061
:1002A800BB68044A1946F86818F0A8FC00BF143760
:1002B800BD4690BD3CAA020880B58CB000AFF8607E
:1002C800B9607A6007F11003796818461DF04EF995
:1002D80003461A46B968F86818F01AFD0346184626
:1002E8003037BD4680BD00BF80B58CB000AFF86028
:1002F800B9607A6007F11003796818461DF036F97D
:1003080003461A46B968F86818F064FC00BF30372D
:10031800BD4680BD80B58CB000AFF860B9607A602A
:1003280007F11003796818461DF020F903461A46AC
:10033800B968F86818F062FC00BF3037BD4680BD68
:1003480080B58CB000AFF860B9607A6007F110032F
:10035800796818461DF00AF903461A46B968F8681C
:1003680018F096FC00BF3037BD4680BD80B584B01C
:1003780000AF7860786817F06BFBB86078681DF09C
:100388009BFDBB68022B1CD10121786817F05EF831
:100398000346002B0AD00121786817F02BFC164A77
:1003A8006FF00101786818F029FC20E001217868D5
:1003B80017F020FC00226FF001017868FFF7AAFF10
:1003C80015E00123FB600EE0F968786817F012FC6D
:1003D800FB68013B1A466FF001017868FFF79AFF46
:1003E800FB680133FB60FA68BB689A42ECDB00BF2C
:1003F8001037BD4680BD00BF3CAA020880B588B052
:1004080000AF7860786817F023FB386178681DF0D2
:1004180053FD0023BB610023FB613EE0F969786866
:1004280017F0E8FB4FF0FF31786817F0A7F803469C
:10043800002B26D04FF0FF317868FFF7FFFEF860F9
:1004480000237B6114E07A694FF0FF317868FFF789
:1004580033FF0346002B08D0BB695A1CBA611A4601
:100468006FF002017868FFF755FF7B6901337B6104
:100478007A69FB689A42E6DB0121786817F0F8FA96
:1004880008E0BB695A1CBA611A466FF00101786826
:10049800FFF740FFFB690133FB61FA693B699A4248
:1004A800BCDB00BF2037BD4680BD00BF80B58AB029
:1004B80000AF78600023FB6000217868FFF7BEFE7C
:1004C80003463B610121786816F070FF0346002B54
:1004D8000BD00121786817F0FFF903467B62786A30
:1004E80020F016FE0346FB6103E04C4B7B620123C0
:1004F800FB613B69002B04DC4949786816F052FE21
:1005080089E0786819F068FA0346184620F0E8FD93
:100518000346002B07D0FB681946786816F05CFC88
:10052800786819F0F9FA01237B610023BB6161E067
:10053800BA6900217868FFF7D7FE4FF0FF31786875
:1005480016F048FF0346002B07D14FF0FF317868BB
:1005580016F054FF0346002B02D0314B3B6206E0F5
:100568004FF0FF31786817F0B7F903463B62386AF5
:1005780020F0CEFD02467B6913447B61BB69002BEA
:1005880013D17B69B3F1805F03DD264978680BF0EE
:100598006BF87969786816F0D1FB0346FB60FB6855
:1005A800396A184624F01CFA1DE07A69FB6913447D
:1005B8007B617B69B3F1805F03DD1A4978680BF0D2
:1005C80053F8FB687A691946786816F0CFFB03463A
:1005D800FB60FB68796A184624F0E5F9FB68396A1C
:1005E800184624F0E0F90121786817F041FABB6950
:1005F8000133BB61BA693B699A4299DBFB681946CA
:10060800786816F0FFFC786819F06CFAFB681946F0
:10061800786816F0E1FB2837BD4680BD44AA020879
:1006280048AA02084CAA020880B584B000AF7860D6
:1006380000217868FFF702FEF860FB68002B15DDE3
:10064800FB68013B1A4600217868FFF74DFEFB68FE
:10065800013B1A4600217868FFF772FEFB68013BF0
:100668001A4600217868FFF705FE07E000220021FE
:100678007868FFF7FFFD786816F01EFC00BF10379A
:10068800BD4680BD90B587B000AF7860786817F038
:10069800DFF9F86000217868FFF7D0FD38610123A1
:1006A8007B610EE07969786817F0A4FA3A6900214D
:1006B8007868FFF72FFE7B6901337B613B69013363
:1006C8003B617A69FB689A42ECDB3A6900217868F9
:1006D800FFF7D0FD386920F075FE03460C461A4630
:1006E8002346786816F05EFC00BF1C37BD4690BDF7
:1006F80080B588B000AF786000217868FFF79EFD6C
:10070800B861BB69DA0F13445B107B610023FB619E
:100718003FE0BA69FB69D31A013B3B61FA690021E2
:100728007868FFF7C9FDF8603A6900217868FFF733
:10073800C3FDB860FB68002B0DD0BB68002B0AD046
:10074800FA6900217868FFF7E5FD3A6900217868C1
:10075800FFF7E0FD1AE0BB68002B0AD0FA69002118
:100768007868FFF7D7FD3A6900217868FFF7E8FD58
:100778000CE0FB68002B09D03A6900217868FFF784
:10078800C9FDFA6900217868FFF7DAFDFB690133D2
:10079800FB61FA697B699A42BBD10021786817F03E
:1007A80029FA00BF2037BD4680BD00BF80B584B0A0
:1007B80000AF786000217868FFF740FDB860BB683B
:1007C800002B08D1002200217868FFF753FD7868D4
:1007D80016F072FB33E0002200217868FFF784FDF1
:1007E8000123FB6019E0FA6800217868FFF764FDCF
:1007F8000346002B07D0FB68013B1A4600217868A6
:10080800FFF788FD06E0FB68013B1A46002178687F
:10081800FFF796FDFB680133FB60FA68BB689A42F4
:10082800E1DBBB68013B1A4600217868FFF788FDC9
:10083800BB68013B1A4600217868FFF71BFD10379B
:10084800BD4680BD90B58BB000AF786078681DF06C
:1008580033FB00217868FFF7F1FCF8600121786824
:1008680016F0B8FF0346184620F0ACFD03460C46C8
:10087800C7E906340221786816F098FD0346002B74
:100888000AD00221786816F0A5FF0346184620F022
:1008980099FD03460C4604E0F86820F093FD0346F2
:1008A8000C46C7E904344FF000024FF00003D7E9C3
:1008B800060121F05FF80346002B0ED0F86820F0FF
:1008C80081FD03460C461A462346D7E9060120F067
:1008D8002DFC03460C46C7E906344FF000024FF0E2
:1008E8000003D7E9040121F045F80346002B0ED098
:1008F800F86820F067FD03460C461A462346D7E9F8
:10090800040120F013FC03460C46C7E904344FF0F9
:1009180000024FF00003D7E9060121F02BF8034647
:10092800002B01D0002319E0F86820F04BFDD7E92F
:10093800062321F01FF80346002B0AD0F86820F0A0
:1009480041FD03460C461846214621F051F803465E
:1009580004E0D7E9060121F04BF803467B624FF02B
:1009680000024FF00003D7E9040121F003F8034621
:10097800002B01D0002319E0F86820F023FDD7E907
:10098800042320F0F7FF0346002B0AD0F86820F074
:1009980019FD03460C461846214621F029F803465E
:1009A80004E0D7E9040121F023F80346BB600023E3
:1009B8003B6213E07A6A00217868FFF77DFC034602
:1009C800002B05D03A6A6FF001017868FFF7A2FCA6
:1009D8007B6A01337B623B6A01333B627A6ABB689C
:1009E8009A42E7DB00BF2C37BD4690BD90B591B069
:1009F80002AF786039607B683B633B68FB623B6BA6
:100A0800BB62FB6A7B623B6B1B693B62BB6ADB7B3D
:100A1800012B0CBF01230023DBB2FB617B6ADB7B6C
:100A2800012B0CBF01230023DBB2BB61FB69002B48
:100A380006D0BB69002B0CBF01230023DBB286E084
:100A4800BB69002B02D04FF0FF3380E00121386AE8
:100A580016F06EFD0346002B4BD00121386A17F0C3
:100A6800C9F8386A16F028FABB6A6C4603F108021E
:100A780092E8030084E803000CCB386A16F0EEF91C
:100A88007B6A6C4603F1080292E8030084E80300DD
:100A98000CCB386A16F0E2F90221386A18F01CFD0E
:100AA8004FF0FF31386A16F07FFEC7E904014FF0B6
:100AB80000024FF00003D7E9040120F051FF03467C
:100AC800002B0FD14FF000024FF00003D7E90401CB
:100AD80020F050FF0346002B02D04FF0FF3302E016
:100AE800012300E000237B630121386A16F0C0FF70
:100AF8002CE0BB6A6C4603F1080292E8030084E824
:100B080003000CCB386A16F0A9F97B6A6C4603F12E
:100B1800080292E8030084E803000CCB386A16F058
:100B28009DF96FF00101386A16F0D6FEF8604FF0B3
:100B3800FF31386A16F0D0FEB860B968F86820F05E
:100B4800DDFA78630221386A16F092FF7B6B18464B
:100B58003C37BD4690BD00BF90B589B002AF786004
:100B68000023BB6000217868FFF768FB0346FB6041
:100B7800FB68002B04DC0021786817F03BF8AFE035
:100B8800FB68594A934203DD584978680AF06CFDBE
:100B98007B68D3F8C4305A1C7B68C3F8C4207868D3
:100BA80018F01AFF0346184620F09AFA0346002B5D
:100BB8000ED07B68D3F8C4305A1E7B68C3F8C420B3
:100BC800BB681946786816F007F9786818F0A4FF2A
:100BD800FA6813465B001344DB001946786816F080
:100BE800ADF80346BB6000233B6100237B612AE02C
:100BF8007A6900217868FFF75FFB0346002B1FD056
:100C0800B9683A6913465B001344DB00CC184FF00F
:100C1800FF31786816F0BCFB03460FCB84E80F0061
:100C2800B9683A6913465B001344DB000B447A68E1
:100C38001A610121786816F01BFF3B6901333B619B
:100C48007B6901337B617A69FB689A42D0DBB868BB
:100C58003969274B182223F0E3FB00237B6119E055
:100C6800B9687A6913465B001344DB000B446C4691
:100C780003F1080292E8030084E803000CCB7868CB
:100C880016F0ECF87A6900217868FFF743FB7B6976
:100C980001337B617A693B699A42E1DB3B697B619D
:100CA80007E07A6900217868FFF74AFB7B6901331E
:100CB8007B617A69FB689A42F3DB7B68D3F8C430BE
:100CC8005A1E7B68C3F8C420786818F00BFFBB680D
:100CD8001946786816F080F80021786816F08AFFBF
:100CE8001C37BD4690BD00BF5455550564AA02087F
:100CF800F509000890B58DB000AF7860786816F0F7
:100D0800A7FEF86178681DF0D7F800217868FFF72A
:100D180095FAB8610121786816F05CFD034618461B
:100D280020F050FB03460C46C7E908344FF0000298
:100D38004FF00003D7E9080120F01CFE0346002B02
:100D48000ED0B86920F03EFB03460C461A462346EF
:100D5800D7E9080120F0EAF903460C46C7E9083448
:100D68004FF000024FF00003D7E9080120F002FE1F
:100D78000346002B01D0002319E0B86920F022FBBC
:100D8800D7E9082320F0F6FD0346002B0AD0B869FE
:100D980020F018FB03460C461846214620F028FE92
:100DA800034604E0D7E9080120F022FE03467B61F0
:100DB8000221786816F00EFD0346184620F002FB63
:100DC80003460C46C7E908344FF000024FF0000311
:100DD800D7E9080120F0CEFD0346002B01D00023FF
:100DE8001FE0BA697B69D31A184620F0EBFAD7E9F5
:100DF800082320F0BFFD0346002B0DD0BA697B699C
:100E0800D31A184620F0DEFA03460C461846214647
:100E180020F0EEFD034604E0D7E9080120F0E8FDE4
:100E280003463B610023FB6213E07A69FB6A1344C3
:100E38001A4600217868FFF73FFA0346002B05D0D1
:100E4800FA6A6FF001017868FFF764FAFB6A013308
:100E5800FB62FA6A3B699A42E7DB3A694FF0FF3175
:100E68007868FFF707FAFB69033BFB60FA683B69A0
:100E78009A423DDA7B69FB621EE0FA6A3B691344D9
:100E88001A4600217868FFF717FA0346002B08D0A6
:100E9800FA6AFB6813441A4600217868FFF73AFAA1
:100EA80007E0FA6AFB6813441A4600217868FFF7DE
:100EB80047FAFB6A0133FB62BA693B69D21AFB6ADB
:100EC8009A42DADCBB69FB6209E0FB6A013B1A461D
:100ED80000217868FFF734FAFB6A013BFB62BA69C4
:100EE8003B69D21AFB681A44FB6A9A42EDDB2EE092
:100EF800FA683B699A422ADDBA693B69D31AFB62F0
:100F080021E0FA6A3B691344013B1A4600217868DC
:100F1800FFF7D2F90346002B09D0FA6AFB6813449D
:100F2800013B1A4600217868FFF7F4F908E0FA6AED
:100F3800FB681344013B1A4600217868FFF700FA62
:100F4800FB6A013BFB62FA6A7B699A42D9DC00239F
:100F5800FB6210E0FB6A03331946786816F04AFE14
:100F68007A69FB6A13441A4600217868FFF7D2F9B8
:100F7800FB6A0133FB62FA6AFB689A42EADBBA69E8
:100F88003B69D21AFB6813441A4600217868FFF7B8
:100F980071F900BF3437BD4690BD00BF90B589B028
:100FA80000AF7860786816F053FD786100217868A2
:100FB800FFF744F938613B69BB611DE0BB69013B40
:100FC800FB60BA697B691344023BBB60FA68002185
:100FD8007868FFF771F90346002B05D0BA6800213D
:100FE8007868FFF797F904E0BA6800217868FFF796
:100FF800A7F9BB69013BBB61BB69002BDEDC0123A0
:10100800FB610DE0F969786816F0F4FDFB69013BB6
:101018001A4600217868FFF77DF9FB690133FB6107
:10102800FA697B699A42EDDB3A697B691344013BB3
:101038001A4600217868FFF71DF93A697B6913445D
:10104800013B184620F0BEF903460C461A462346D3
:10105800786815F0A7FF00BF2437BD4690BD00BFD4
:1010680080B582B000AF78600021786816F046FA43
:101078000346002B03D11B4978680AF0C1FB1A4AC2
:101088000021786817F0A6FD4FF0FF31786816F058
:101098004FFA0346002B19D10121786816F0E8FCB5
:1010A8001249786817F038FD114A4FF0FF31786817
:1010B80017F090FD786816F059FF0E4A4FF0FF318F
:1010C800786817F087FD786816F050FF0021786877
:1010D80016F090FD0021786818F0FEF900BF083777
:1010E800BD4680BD80AA020898AA0208A0AA0208E4
:1010F800A8AA0208B4AA020890B587B000AF786021
:1011080000217868FFF79AF8F8600221786816F0ED
:101118004DF90346002B05D00221786816F05AFBDA
:10112800034600E000233B613B69002B03DA3A6980
:10113800FB6813443B613B69002B01DA00233B61E8
:101148000121786816F056FD3B697B611FE07A69DA
:1011580000217868FFF7B0F80346002B14D07868B0
:101168001DF03EFB0346002B0AD0786920F02AF9CF
:1011780003460C461A462346786815F013FF10E01C
:101188000121786816F074FC7B6901337B617A6908
:10119800FB689A42DBDB4FF00002034B786815F0DE
:1011A80001FF1C37BD4690BD0000F0BF90B587B069
:1011B80000AF786000217868FFF740F8F8600221F6
:1011C800786816F0F3F80346002B05D002217868FA
:1011D80016F000FB034601E0FB68013B3B61FB683E
:1011E8005A1E3B699A4202DAFB68013B3B613B6944
:1011F800002B03DA3A69FB6813443B6101217868E4
:1012080016F0F8FC3B697B611FE07A690021786879
:10121800FFF752F80346002B14D078681DF0E0FA67
:101228000346002B0AD0786920F0CCF803460C4618
:101238001A462346786815F0B5FE0FE00121786854
:1012480016F016FC7B69013B7B617B69002BDCDABD
:101258004FF00002034B786815F0A4FE1C37BD461A
:1012680090BD00BF0000F0BF90B587B000AF7860B8
:10127800786816F0EDFB0346022BCCBF0123002350
:10128800DBB23B610121786816F052F90346002B66
:1012980003D12B4978680AF0B3FA00217868FEF781
:1012A800CDFFF86000237B613CE07A690021786813
:1012B800FFF702F80346002B31D00121786816F0B9
:1012C80099FC3B69002B04D00221786816F092FC47
:1012D80002E0786815F0F0FD6FF00201786816F00A
:1012E80089FC786920F06EF803460C461A462346B6
:1012F800786815F057FE0021786816F07BFC03210A
:10130800786818F0E9F84FF0FF31786816F038FA85
:101318000346002B0FD00221786816F0A9FB7B69E1
:1013280001337B617A69FB689A42BEDB01217868E8
:1013380015F006FE00E000BF1C37BD4690BD00BF9B
:10134800C0AA020890B587B000AF7860786816F038
:101358007FFB0346022BCCBF01230023DBB23B619A
:101368000121786816F0E4F80346002B03D12B49D5
:1013780078680AF045FA00217868FEF75FFFF860A0
:1013880000237B613CE07A6900217868FEF794FFCE
:101398000346002B31D00121786816F02BFC3B69FD
:1013A800002B04D00221786816F024FC02E078684B
:1013B80015F082FD6FF00201786816F01BFC786961
:1013C80020F000F803460C461A462346786815F0C4
:1013D800E9FD0021786816F00DFC0321786818F003
:1013E8007BF84FF0FF31786816F0CAF90346002BF6
:1013F8000FD10221786816F03BFB7B6901337B61D2
:101408007A69FB689A42BEDB0021786815F098FD7E
:1014180000E000BF1C37BD4690BD00BFC0AA02084F
:1014280090B587B000AF7860786816F011FB034676
:10143800022BCCBF01230023DBB23B61012178687A
:1014480016F076F80346002B03D1264978680AF08F
:10145800D7F900217868FEF7F1FEF86000237B6178
:1014680034E07A6900217868FEF726FF0346002BEE
:1014780029D00121786816F0BDFB3B69002B04D008
:101488000221786816F0B6FB02E0786815F014FDC2
:101498006FF00201786816F0ADFB78691FF092FFD3
:1014A80003460C461A462346786815F07BFD002152
:1014B800786816F09FFB0321786818F00DF8022170
:1014C800786816F0D5FA7B6901337B617A69FB6825
:1014D8009A42C6DB786815F0EFFC00BF1C37BD46A2
:1014E80090BD00BFC0AA020890B587B000AF786071
:1014F800786816F0ADFA0346022BCCBF012300230F
:10150800DBB23B610121786816F012F80346002B24
:1015180003D1294978680AF073F978681CF0CCFC83
:1015280000217868FEF78AFEF86000237B613AE0C4
:101538007A6900217868FEF7BFFE0346002B2FD09A
:101548000121786816F056FB3B69002B04D0022174
:10155800786816F04FFB02E0786815F0ADFC6FF084
:101568000201786816F046FB78691FF02BFF0346E6
:101578000C461A462346786815F014FD0021786851
:1015880016F038FB0321786817F0A6FF7A696FF028
:1015980002017868FEF7BEFE0121786816F068FA45
:1015A8007B6901337B617A69FB689A42C0DB00BFC3
:1015B8001C37BD4690BD00BFC0AA020890B587B0D1
:1015C80000AF7860786816F043FA0346022BCCBF68
:1015D80001230023DBB2FB600121786815F0A8FF26
:1015E8000346002B03D1324978680AF009F9786874
:1015F8001CF062FC00233B6100217868FEF71EFEA8
:10160800B86000237B614AE07A6900217868FEF7B8
:1016180053FE0346002B3FD00121786816F0EAFA02
:10162800FB68002B04D00221786816F0E3FA02E088
:10163800786815F041FC6FF00201786816F0DAFA64
:1016480078691FF0BFFE03460C461A4623467868A1
:1016580015F0A8FC0021786816F0CCFA0321786808
:1016680017F03AFF4FF0FF31786816F089F8034613
:10167800002B0DD00121786816F0FAF93B695A1C45
:101688003A611A466FF001017868FEF743FE03E0FD
:101698000221786816F0ECF97B6901337B617A697D
:1016A800BB689A42B0DB00BF1C37BD4690BD00BF87
:1016B800C0AA020890B587B000AF7860786816F0C5
:1016C800C7F90346022BCCBF01230023DBB23B61E1
:1016D8000121786815F02CFF0346002B03D135490A
:1016E80078680AF08DF800217868FEF7A7FDF860A1
:1016F80000237B61FB68002B06D13B69002B03D1DB
:101708002D4978680AF07CF83B69002B0FD002213C
:10171800786816F06FFA44E07B695A1C7A611A46B9
:1017280000217868FEF7C8FD0346002B04D17A69CA
:10173800FB689A42F0DB00E000BF7A69FB689A42D6
:101748002FD11D4978680AF05BF87A69002178681A
:10175800FEF7B2FD0346002B20D00121786816F071
:1017680049FA786815F0A8FB0421786816F052FC4D
:101778000421786816F04EFC78691FF023FE0346B2
:101788000C461A462346786815F00CFC0021786848
:1017980016F030FA0421786817F09EFE7B69013351
:1017A8007B617A69FB689A42CFDB00BF1C37BD4674
:1017B80090BD00BFC0AA0208DCAA020890B587B095
:1017C80000AF7860786816F043F90346022BCCBF67
:1017D80001230023DBB23B610121786815F0A8FEE4
:1017E8000346002B03D1344978680AF009F8002130
:1017F8007868FEF723FDF860FB68013B7B61FB68B6
:10180800002B06D13B69002B03D12C49786809F0DD
:10181800F7FF3B69002B0FD00221786816F0EAF930
:1018280042E07B695A1E7A611A4600217868FEF701
:1018380043FD0346002B03D17B69002BF1DA00E05E
:1018480000BF7B69002B2FDA1C49786809F0D8FFA4
:101858007A6900217868FEF72FFD0346002B20D017
:101868000121786816F0C6F9786815F025FB04217F
:10187800786816F0CFFB0421786816F0CBFB7869FE
:101888001FF0A0FD03460C461A462346786815F05B
:1018980089FB0021786816F0ADF90421786817F003
:1018A8001BFE7B69013B7B617B69002BD0DA00BFA3
:1018B8001C37BD4690BD00BFC0AA0208DCAA0208BA
:1018C80080B584B000AF78600121786815F002FE19
:1018D8000346002B10D00121786816F011F8F86043
:1018E800FB681B78012B0CBF01230023DBB21946D0
:1018F800786815F025FB03E00021786815F020FBD7
:1019080000BF1037BD4680BD80B584B002AF786097
:101918007B689B6E1946786815F072FC0023474A6D
:101928004749786800F09AF90023464A464978689A
:1019380000F094F90123454A4549786800F08EF98A
:101948000023444A4449786800F088F90023434A50
:101958004349786800F082F90023424A424978688E
:1019680000F07CF90023414A4149786800F076F993
:101978000223404A4049786800F070F901233F4A41
:101988003F49786800F06AF900233E4A3E49786882
:1019980000F064F900233D4A3D49786800F05EF99B
:1019A80001233C4A3C49786800F058F901233B4A36
:1019B8003B49786800F052F901233A4A3A49786875
:1019C80000F04CF90123394A3949786800F046F9A2
:1019D8000123384A3849786800F040F90123374A2A
:1019E8003749786800F03AF90123364A3649786869
:1019F80000F034F90123354A3549786800F02EF9AA
:101A08000123344A3449786800F028F90023009308
:101A1800324B334A324978681CF06CFB0123314A57
:101A28003149786800F01AF902222C49786817F0D1
:101A38009BF800BF0837BD4680BD00BF691000088D
:101A4800F0AA0208050400080CAB0208B504000857
:101A580024AB0208310600083CAB02088D060008DA
:101A680050AB0208F906000868AB0208B507000881
:101A780080AB02084D08000898AB0208610B00080B
:101A8800B0AB0208FD0C0008C8AB0208A50F00089F
:101A9800E0AB020801110008F8AB0208B511000814
:101AA80010AC0208711200082CAC02084D13000893
:101AB80044AC0208291400085CAC0208F1140008C0
:101AC80074AC0208C515000888AC0208BD160008E9
:101AD800A0AC0208C5170008B8AC0208D4AC0208CC
:101AE80075030008C9180008DCAC020880B582B08C
:101AF80000AF78600121786815F042FE0346194668
:101B080078681CF0EDF900BF0837BD4680BD00BFFE
:101B180080B582B000AF78600121786815F030FE9A
:101B280003461946786815F00BFA00BF0837BD461A
:101B380080BD00BF80B584B000AF786000217868B0
:101B480015F0DEFEF860FB681B78062B03D0094908
:101B5800786809F055FEFB689B69002B01D0064B9D
:101B680000E0064B1946786815F01CFB00BF1037DB
:101B7800BD4680BDECAC0208FCAC020804AD02080E
:101B880080B584B000AF78600021786815F0B8FEA1
:101B9800F860FB681B78062B03D00749786809F0C2
:101BA8002FFEFB689B691946786815F0C9F900BFD4
:101BB8001037BD4680BD00BFECAC020880B584B0CC
:101BC80002AF78607B681B6F00229A617B681B6F8D
:101BD8001946786815F014FB00230E4A0E497868F8
:101BE80000F03CF800230D4A0D49786800F036F8FB
:101BF800012300930B4B0C4A0C4978681CF07AFAC5
:101C080002220849786816F0AFFF00BF0837BD46C2
:101C180080BD00BF3D1B00080CAD0208891B0008F1
:101C280028AD020844AD0208F51A0008191B00087F
:101C380080B584B000AFF860B9607A603B603B68FB
:101C4800BA687968F8681CF03FFA0222B968F8683F
:101C580016F08AFF00BF1037BD4680BD80B586B03C
:101C680000AFF860B9607A603B602E21B86823F055
:101C7800C4F878617B69002B02D07B69013300E0EE
:101C8800BB687B613B68BA687968F8681CF01CFA25
:101C980002237A696FF00101F86816F0D1FF00BFDE
:101CA8001837BD4680BD00BF80B584B000AFF8606E
:101CB800B960C7E90023D7E90023F86815F072F97D
:101CC8000723BA686FF00101F86816F0B9FF00BF82
:101CD8001037BD4680BD00BF80B584B000AFF86046
:101CE800B9607A607968F86815F05CFA0223BA6816
:101CF8006FF00101F86816F0A3FF00BF1037BD466A
:101D080080BD00BF90B58BB000AF786001217868C6
:101D180015F0E2FD78620221786815F047FB03466A
:101D2800002B05D00221786815F054FD034600E029
:101D380000233B624FF000033A4CC7E9063402E047
:101D48007B6A01337B627B6A1B7818460BF064FA66
:101D58000346002BF4D17B6A1B7818460BF07CFAFB
:101D68000346002BECD17B6A1B782D2B08D17B6AAC
:101D780001337B624FF000032B4CC7E9063406E0C1
:101D88007B6A1B782B2B02D17B6A01337B623B6A0F
:101D9800002B15D10A233B627B6A1B78302B1CD1A0
:101DA8007B6A01331B78782B04D07B6A01331B785C
:101DB800582B12D17B6A02337B6210233B620CE002
:101DC8003B6A012B02DD3B6A242B06DD4FF0000243
:101DD800164B786815F0E6F820E007F10C033A6A2C
:101DE8001946786A1BF0E4F8C7E90401FB687A6AC7
:101DF8009A4206D14FF000020C4B786815F0D2F8E1
:101E08000CE0D7E90623D7E904011FF041FB03469C
:101E18000C461A462346786815F0C4F82C37BD4698
:101E280090BD00BF0000F03F0000F0BF0000F87F49
:101E380080B588B000AF78600121786815F04CFD56
:101E4800F86102E0FB690133FB61FB691B78184606
:101E58000BF0E2F90346002BF4D1FB691B78184616
:101E68000BF0FAF90346002BECD108222349F86954
:101E780022F0AEFF0346002B06D14FF00002204BA4
:101E8800786815F08FF835E009221E49F86922F0C4
:101E98009FFF0346002B06D14FF00002184B7868CD
:101EA80015F080F826E009221749F86922F090FF1A
:101EB8000346002B06D14FF00002144B786815F04A
:101EC80071F817E007F10C031946F8691BF0ACFB31
:101ED800C7E90401FA68FB699A4206D14FF000028B
:101EE8000B4B786815F05EF804E0D7E904237868AE
:101EF80015F058F800BF2037BD4680BD4CAD02082C
:101F08000000F07F58AD020864AD02080000F0FF41
:101F18000000F87F90B585B000AF7860012178683F
:101F280015F042FCC7E9020101231C46D7E9022348
:101F3800D7E902011FF046FD0346002B01D100231B
:101F48001C46E3B21946786814F0FAFF00BF14374C
:101F5800BD4690BDF0B585B000AF786001217868C6
:101F680015F022FCC7E90201BC68FB6823F00045B4
:101F780001231E464FF0FF320F4B204629461FF023
:101F880021FD0346002B0BD14FF0FF320A4B2046B0
:101F980029461FF00DFD0346002B01D100231E46E4
:101FA800F3B283F00103DBB21946786814F0C8FF76
:101FB80000BF1437BD46F0BDFFFFEF7F80B588B086
:101FC80000AFF860B9607A60BB68BB6100237B61D1
:101FD800F86817F001FD034618461FF081F803461C
:101FE800002B3FD07B691946F86814F0F5FEF868B5
:101FF80017F092FDBB695A1CBA611B78FB61F9693D
:10200800786822F0DFFC0346002B07D007F11403A1
:10201800FA691946F8680AF041FE23E007F114034B
:1020280025221946F8680AF039FE1F4B1A68FB6921
:102038001B1103F00F0313441B781A4607F114030E
:102048001946F8680AF02AFE174B1A68FB6903F06C
:102058000F0313441B781A4607F114031946F8684E
:102068000AF01CFEBB691B78002BC3D107F11403CF
:1020780000221946F8680AF011FE7B69002B02D08D
:102088007B69083300E0094B1946F86814F0BAFF79
:10209800F86817F027FD7B691946F86814F09CFE6C
:1020A80000BF2037BD4680BD0000002070AD02088B
:1020B80090B58BB000AFF860B9607A60BB68BB615F
:1020C80000237B61F86817F087FC034618461FF069
:1020D80007F80346002B6DD07B691946F86814F0A1
:1020E8007BFEF86817F018FDBB695A1CBA611B78AB
:1020F8007B627B6A252B07D007F114037A6A19469D
:10210800F8680AF0CBFD55E0BB691B78002B04D0BA
:10211800BB6901331B78002B03D13749F86809F0F4
:10212800B3FBBB695A1CBA611B783B62BB695A1C7A
:10213800BA611B78FB61386A0BF00AF90346002B79
:1021480005D0F8690BF004F90346002B03D12B499D
:10215800F86809F099FB386A0BF018F903461C0176
:10216800F8690BF013F9034623437B62796A7868B0
:1021780022F028FC0346002B07D107F114037A6AE2
:102188001946F8680AF08AFD14E007F114032522BD
:102198001946F8680AF082FD07F114033A6A1946ED
:1021A800F8680AF07BFD07F11403FA691946F86824
:1021B8000AF074FDBB691B78002B95D107F1140355
:1021C80000221946F8680AF069FD7B69002B02D0E5
:1021D8007B69083300E00A4B1946F86814F012FFCF
:1021E800F86817F07FFC7B691946F86814F0F4FD6D
:1021F80000BF2C37BD4690BD74AD020890AD0208F3
:1022080070AD020880B582B000AF786001217868AF
:1022180015F062FB0346044A19467868FFF748FF41
:1022280000BF0837BD4680BDA8AD020880B582B0A2
:1022380000AF78600121786815F04EFB0346044A28
:1022480019467868FFF734FF00BF0837BD4680BDE0
:1022580070AD020880B582B000AF7860012178685F
:1022680015F03AFB0346044A19467868FFF7A6FEBC
:1022780000BF0837BD4680BDB4AD020880B582B046
:1022880000AF78600121786815F026FB0346044A00
:1022980019467868FFF792FE00BF0837BD4680BD33
:1022A80008AE020890B585B002AF78600022002120
:1022B800786813F077FE02467B685A667B685B6E27
:1022C8001A460121786813F06DFE02467B689A660B
:1022D8007B685B6E1A460421786813F063FE024639
:1022E8007B68DA667B685B6E1A460621786813F0AD
:1022F80059FE02467B681A677B685B6E1A4607219F
:10230800786813F04FFE02467B685A677B685B6EFD
:102318001A460821786813F045FE02467B689A67DA
:102328007B685B6E1A460A21786813F03BFE02460A
:102338007B68C3F880207B685B6E1A460921786841
:1023480013F030FE02467B68DA677B68DC6F7B68D7
:1023580098687B681968002300930023694A1DF078
:10236800E5FE0346A3617B68DC6F6649786814F074
:1023780017FD0346E3617B685B6E1A4605217868A2
:1023880013F010FE02467B68C3F884207B68D3F8FC
:1023980084301A460521786813F004FE02467B68EB
:1023A800C3F888207B68D3F884301A4605217868FA
:1023B80013F0F8FD02467B68C3F88C207B68D3F8DD
:1023C80084301A460521786813F0ECFD02467B68D4
:1023D800C3F890207B68D3F884301A4605217868C2
:1023E80013F0E0FD02467B68C3F894207B68D3F8BD
:1023F80084301A460521786813F0D4FD02467B68BC
:10240800C3F898207B68D3F884301A460521786889
:1024180013F0C8FD02467B68C3F89C2078680EF06C
:10242800DDFF7868FFF770FA786809F04BFE786886
:10243800FFF7C4FB78680DF077FF78681AF0C6FCE0
:10244800786814F0A1FB786805F046FD786809F013
:102458003DFA78680DF0C4F978680FF08FFF4FF0F7
:102468000002294B786814F09DFD072227497868F7
:1024780016F07AFB4FF00002254B786814F092FDB5
:1024880007222449786816F06FFB786814F014FD69
:1024980007222149786816F067FB01231F4A204963
:1024A8007868FFF7C5FB01231E4A1F497868FFF7C4
:1024B800BFFB01231D4A1E497868FFF7B9FB0123BA
:1024C8001C4A1D497868FFF7B3FB01231B4A1C49C6
:1024D8007868FFF7ADFB01231A4A1B497868FFF7B4
:1024E800A7FB0123194A1A497868FFF7A1FB0123C2
:1024F800184A19497868FFF79BFB00BF0C37BD469F
:1025080090BD00BF50AE02080000F87F58AE020828
:102518000000F07F4CAD02085CAE02080D1D0008FB
:1025280068AE0208391E000874AE02081D1F0008B4
:1025380080AE02085D1F000888AE02080D22000860
:1025480094AE020835220008A0AE02085D220008F9
:10255800B4AE020885220008C0AE020800000000E0
:102568000CB480B5ADF5467D02AF3B1D18603B4607
:10257800196007F54773C7F80C3307F10C00D7F853
:102588000C33D7F818234FF4807122F085FF3B1DD8
:102598001B681A6A3B461B685B6807F586700093E0
:1025A80013460C4A4FF4807122F062F907F10C02CD
:1025B80007F586731146184622F0F5F907F5867275
:1025C8003B1D1146186809F0C5F83B1D186817F03F
:1025D800A3FA00BFE8AE020880B584B000AFF86087
:1025E800B9607A607B689B6A0722134918460AF02B
:1025F800B5FD0346002B06DB7B689B6A0F4A7968AA
:10260800F868FFF7ADFFBB68DB68002B10D07B686C
:102618009B6A09220A4918460AF0A0FD0346002BC6
:1026280006DB7B689B6A074A7968F868FFF798FFBA
:1026380000BF1037BD4680BD0400002078AF0208F7
:102648002000002098AF020880B588B002AFF8607B
:10265800B9607A603B605021F86814F06FFB7861CC
:1026680050220021786920F0FEFF7B690022DA649D
:10267800FB68D3F8D8207B699A64FB687A69C3F849
:10268800D820FB68D3F8CC305A1CFB68C3F8CC20A0
:10269800FB681B6A1946F8680AF0E8FC02467B6981
:1026A800DA637B69BA681A647B697A6A5A607B69FB
:1026B800BA6ADA607B68002B02D07B689B6A00E00C
:1026C800074B7A6913603B6A00933B687A687969BB
:1026D800F86802F041FD7B6918461837BD4680BD91
:1026E800C4AF020880B584B000AFF860B9607A6002
:1026F8007B689BB21A467B689A4203D01849F868EF
:1027080009F03AF8BB681A6ABB68DB699A4216DBBB
:10271800BB68DB69002B03D0BB68DB695B0000E0AA
:102728004023BA68D361BB689969BB68DB695B0001
:102738001A46F86814F01AFB0246BB689A61BB682F
:102748009A69BB681B6A581CB96808625B00134425
:102758007A6892B21A8000BF1037BD4680BD00BFAC
:10276800C8AF020880B584B000AFF860B9607A607D
:10277800BB685B6C1A46B968F868FFF7B3FF7A68FC
:10278800B968F868FFF7AEFF00BF1037BD4680BDD7
:1027980080B584B000AFF860B9607A607A68B968CB
:1027A800F868FFF79FFF00BF1037BD4680BD00BF28
:1027B80080B485B000AFF860B9607A607B685A6809
:1027C800BB685A6400BF1437BD4680BC704700BF61
:1027D80080B584B000AFF860B9607A60BB68DA6A27
:1027E800BB689B6A9A4216DBBB689B6A002B03D0C6
:1027F800BB689B6A5B0000E01023BA689362BB6801
:10280800596ABB689B6A9B001A46F86814F0AEFACE
:102818000246BB685A62BB685A6ABB68DB6A9B009F
:1028280013447A681A60BB68DB6A591CBA68D162BB
:1028380018461037BD4680BD80B586B000AFF86039
:10284800B9607A603B607B689B6A3B61BB68DB6808
:10285800002B17D0424938691EF050FC0346002B64
:1028680004D1404A7968F868FFF77AFE3E4938692A
:102878001EF044FC0346002B13D13C4A7968F868E3
:10288800FFF76EFE384938691EF038FC0346002B06
:1028980007D1FB681A6A7B685B683549F86808F0F5
:1028A8009FFE3B68002B03D1BB68DB68002B27D059
:1028B80000237B611FE0BB681A6B7B699B00134494
:1028C8001B68396918461EF019FC0346002B0FD106
:1028D8003B68002B02D07B6901333DE0BB68DB68B5
:1028E800002B05D03B69234A7968F868FFF738FE62
:1028F8007B6901337B61BB689A6B7B699A42DADC3E
:10290800BB689A6BBB685B6B9A4216DBBB685B6BF8
:10291800002B03D0BB685B6B5B0000E01023BA6838
:102928005363BB68196BBB685B6B9B001A46F868FE
:1029380014F01CFA0246BB681A63BB681A6BBB68C2
:102948009B6B9B0013443A691A60BB689B6B5A1CCB
:10295800BB689A63BB689B6B18461837BD4680BD39
:10296800F0AF0208FCAF020834B002083CB002081D
:102978006CB002088CB0020880B586B000AFF86071
:10298800B9607A60BB689B6B7B6114E0BB681A6BAB
:102998007B6903F18043013B9B0013441B68796802
:1029A80018461EF0ABFB0346002B01D17B6907E0FC
:1029B8007B69013B7B617B69002BE7DC4FF0FF33D0
:1029C80018461837BD4680BD80B584B000AFF860A2
:1029D800B9607A60BB6800229A600922B968F86811
:1029E800FFF7C0FE7A68B968F868FFF7F1FE03469A
:1029F8001A46B968F868FFF7CBFE00BF1037BD4626
:102A080080BD00BF90B589B000AFF860B960C7E974
:102A18000023D7E900014FF000024FF000031EF039
:102A28009FFF0346002B17D00622B968F868FFF706
:102A380099FE4FF40042B968F868FFF7A9FED7E994
:102A48000034234603F00043002B66D02C22B968DB
:102A5800F868FFF787FE60E0D7E900014FF0000251
:102A6800334B1EF09BFF0346002B35D0D7E90001FE
:102A78002DA3D3E900231EF087FF0346002B2BD09C
:102A8800D7E90034184621461EF0B2FF034618461F
:102A98001EF098FCD7E900341A4623461EF060FF62
:102AA8000346002B18D00622B968F868FFF75AFECB
:102AB800D7E900014FF000021E4B1EF037FB03461A
:102AC8000C46184621461EF093FF03461A46B9687D
:102AD800F868FFF75DFE20E00722B968F868FFF79D
:102AE80041FE07F114033A4692E8030083E8030025
:102AF8000023FB610EE0FB695B0007F12002134431
:102B080033F80C3C1A46B968F868FFF741FEFB69D0
:102B18000133FB61FB69032BEDD900BF2437BD46A8
:102B280090BD00BFAFF3008000000000C0FFDF4091
:102B38000000E0C00000E04080B586B000AFF8605B
:102B4800B9607A603B607A68B968F868FFF70AFE8E
:102B58003B683B6100237B610EE07B695B0007F10A
:102B68001802134433F8083C1A46B968F868FFF7A6
:102B78000FFE7B6901337B617B69012BEDD900BFB7
:102B88001837BD4680BD00BF80B588B000AFF8607B
:102B9800B9607A603B60BB6A9B6A344918461EF08C
:102BA800ADFA0346002B0CBF01230023DBB2FB6107
:102BB800BB6A9B6A2E4918461EF0A0FA0346002BF2
:102BC8000CBF01230023DBB2BB61FB69002B05D0DE
:102BD800BB6800229A60BB6801221A61BA6AB968A8
:102BE800F868FFF7F9FCBB68DB68002B12D07B683C
:102BF800142B0FD1FB69002B04D01E4AB96AF86860
:102C0800FFF7AEFCBB69002B04D01B4AB96AF86811
:102C1800FFF7A6FCBB69002B07D0FB681A6ABB6AE2
:102C28005B681649F86808F0DBFCBB6A9B6A1A46C1
:102C3800B968F868FFF7A0FE78617B69002B07DAAE
:102C4800BB6A9B6A3A68B968F868FFF775FF09E0DC
:102C58007A68B968F868FFF785FD7A69B968F8682D
:102C6800FFF796FD00BF2037BD4680BDF0AF0208D4
:102C780034B00208ACB00208D4B002086CB0020844
:102C880080B483B000AF786039603B681B6A18462F
:102C98000C37BD4680BC704780B586B000AFF86081
:102CA800B9607A607A68B968F868FFF75BFDBB6855
:102CB8001B6A7B610022B968F868FFF769FD7B69C8
:102CC80018461837BD4680BD80B584B000AFF8609F
:102CD800B9607A603B607A68B968F868FFF742FDC6
:102CE8003B689BB21A463B689A4203D00649F8688B
:102CF80008F042FD3A68B968F868FFF749FD00BF77
:102D08001037BD4680BD00BFF8B0020880B584B05A
:102D180000AFF860B9607A603B603B689BB21A46C6
:102D28003B689A4203D00849F86808F025FDBB685B
:102D38009A697B685B0013443A6892B21A8000BFB4
:102D48001037BD4680BD00BFF8B0020880B584B01A
:102D580000AFF860B9607A60BB681B6A7A68B968C6
:102D6800F868FFF7D3FF00BF1037BD4680BD00BF2E
:102D780080B586B002AFF860B9607A607B68DB68BE
:102D88001B78032B10D17B68DB681A46B968F86892
:102D9800FFF70EFD7B68DB68009316231322B968E2
:102DA800F868FFF7F1FE06E07B68DB681A46B96849
:102DB800F86800F093FC7A68B968F868FFF7F8FCDF
:102DC8002A22B968F868FFF7CDFC00BF1037BD4666
:102DD80080BD00BF80B584B000AFF860B9607A608C
:102DE8003B607B68DB681A46B968F86800F076FCD7
:102DF8007A68B968F868FFF7DBFC3A68B968F86878
:102E0800FFF7B0FC00BF1037BD4680BD80B584B069
:102E180000AFF860B9607A603B607B68DB681A468F
:102E2800B968F86800F05AFC7B681B691A46B968EB
:102E3800F86800F053FC7A68B968F868FFF7B8FCDE
:102E48003A68B968F868FFF78DFC00BF1037BD46CF
:102E580080BD00BF80B584B000AFF860B9607A600B
:102E680015E07B68DB681A46B968F868FFF7A0FCCC
:102E78007B68DB681A46B968F86800F02FFC1B22EB
:102E8800B968F868FFF76EFC7B681B697B607B6834
:102E9800002BE6D100BF1037BD4680BD90B599B074
:102EA80000AFF860B9607A603B603B68DB681B780C
:102EB800042B0ED13B68DB6803F12004D4E900340D
:102EC80007F134011A462346F8681AF04BFDF865F5
:102ED80034E03B68DB689B6AFB652FE07B68DB6856
:102EE8001A783B681B789A4225D17B68DB68DB68D7
:102EF8007B657B6D1B78042B0DD17B6D03F1200462
:102F0800D4E9003407F114011A462346F8681AF088
:102F180029FDB86502E07B6D9B6ABB65B96DF86DEC
:102F28001EF0ECF80346002B05D1FB6D084A7968C2
:102F3800F868FFF715FB7B681B697B607B68DA68BC
:102F48003B689A42CAD100BF6437BD4690BD00BFF6
:102F580018B1020890B58DB004AFF860B9607A6016
:102F68007B68FB619EE07B68DB68BB61BB69DB68F3
:102F78007B617B691B78022B03D07B691B78052B4F
:102F88000CD17A69B968F868FFF712FC7B699B6A0B
:102F98000822B968F868FFF7CFFD19E07B691B784C
:102FA800042B10D17A69B968F868FFF701FC7B69CE
:102FB80003F12004D4E900341A462346B968F868B6
:102FC800FFF720FD04E03B4A7969F868FFF7C8FA83
:102FD800BB68DB68002B05D0BB69FA69B968F8687B
:102FE800FFF75CFFBB691B780F2B16D0102B34D072
:102FF8000E2B00D053E0BB691B691A46B968F86804
:1030080000F06CFBBA69B968F868FFF7D1FB1C22BD
:10301800B968F868FFF7A6FB41E07B695968BB69A6
:103028005B69BA68D2680292002201920093002379
:103038000022F868FFF708FB03461A46B968F868E3
:10304800FFF7C2FCBA69B968F868FFF7B1FB1D223F
:10305800B968F868FFF786FB21E07B695968BB69A6
:103068001869BB695B69BA68D2680292002201924A
:10307800009303460022F868FFF7E6FA03461A466B
:10308800B968F868FFF7A0FCBA69B968F868FFF78B
:103098008FFB1E22B968F868FFF764FB00BF7B68E6
:1030A8001B697B607B68002B7FF45DAF00BF243712
:1030B800BD4690BD44B1020880B586B000AFF86047
:1030C800B9607A6000237B610CE07B68DB681A4694
:1030D800B968F86800F002FB7B681B697B607B6954
:1030E80001337B617B68002BEFD17B691846183769
:1030F800BD4680BD80B588B002AFF860B9607A601F
:103108007B68DB687B617B681B693B617B691B783B
:10311800122B16D0132B32D0032B4AD13A69B96837
:10312800F86800F0DBFA7A68B968F868FFF740FBDE
:103138007B69009318231422B968F868FFF724FD07
:103148003CE07B69DB681A46B968F86800F0C6FAA3
:103158007B691B691A46B968F86800F0BFFA3A69D2
:10316800B968F86800F0BAFA7A68B968F868FFF7D9
:103178001FFB2122B968F868FFF7F4FA1EE07B69A3
:10318800DB681A46B968F86800F0A8FA3A69B968BD
:10319800F86800F0A3FA7A68B968F868FFF708FBDE
:1031A8007B691B699B6A2222B968F868FFF7C4FC2F
:1031B80004E0044A7969F868FFF7D2F900BF1837C4
:1031C800BD4680BD70B1020880B588B002AFF86016
:1031D800B9607A607B68DB687B617B681B78502B01
:1031E80021D17B691B69002B06D07B691B69404A8A
:1031F8001946F868FFF7B4F97B69DB681A46B968BD
:10320800F868FFF7D5FA7B69DB68DB680093182359
:103218001422B968F868FFF7B7FC0022B968F868A3
:10322800FFF7A0FA61E07B691B78122B16D0132BED
:1032380037D0032B54D17A69B968F868FFF7B8FA20
:103248007B69009318231422B968F868FFF79CFC7F
:103258000022B968F868FFF785FA46E07B69DB6801
:103268001A46B968F86800F039FA7B691B691A468A
:10327800B968F86800F032FA7A69B968F868FFF74F
:1032880097FA0422B968F868FFF76CFA2122B9683E
:10329800F868FFF767FA0022B968F868FFF762FA7A
:1032A80023E07B69DB681A46B968F86800F016FA0B
:1032B8007A69B968F868FFF77BFA0322B968F86891
:1032C800FFF750FA7B691B699B6A2222B968F86884
:1032D800FFF732FC0022B968F868FFF743FA04E008
:1032E800044A7969F868FFF73BF91837BD4680BD8D
:1032F80090B10208C0B1020880B586B002AFF8608C
:10330800B9607A607B681B78122B11D0132B2DD0F3
:10331800032B45D17A68B968F868FFF749FA7B68E2
:10332800009317231322B968F868FFF72DFC3CE0D7
:103338007B68DB681A46B968F86800F0CFF97B68E3
:103348001B691A46B968F86800F0C8F97A68B9685C
:10335800F868FFF72DFA0222B968F868FFF702FA51
:103368001F22B968F868FFF7FDF91EE07B68DB6883
:103378001A46B968F86800F0B1F97A68B968F86867
:10338800FFF716FA0122B968F868FFF7EBF97B68CE
:103398001B699B6A2022B968F868FFF7CDFB04E037
:1033A800044A7968F868FFF7DBF800BF1037BD46B4
:1033B80080BD00BF70B1020880B586B002AFF8606A
:1033C800B9607A603B607B681B78122B19D0132B8D
:1033D8002AD0032B3ED17A68B968F868FFF7E8F974
:1033E8003B68002B04D00322B968F868FFF7BAF9E4
:1033F8007B68009318231422B968F868FFF7C4FBA8
:103408002DE07A68B968F868FFF7D2F93B68002BB5
:1034180004D00522B968F868FFF7A4F92122B96831
:10342800F868FFF79FF91AE07A68B968F868FFF753
:10343800BFF93B68002B04D00422B968F868FFF78D
:1034480091F97B681B699B6A2222B968F868FFF7C3
:1034580073FB04E0044A7968F868FFF781F800BF55
:103468001037BD4680BD00BF70B1020880B586B078
:1034780000AFF860B9607A603B607B68DB687B61AD
:103488007B681B693B617A69B968F868FFF734FFA4
:103498003A69B968F86800F021F97A68B968F86893
:1034A800FFF786F93A68B968F868FFF75BF900230F
:1034B8007A69B968F868FFF77FFF00BF1837BD461B
:1034C80080BD00BF80B588B002AFF860B9607A608F
:1034D8007B68DB687B617B691B78122B1AD0132B06
:1034E80031D0032B44D1BB68DB68002B04D0254ABC
:1034F8007968F868FFF734F87A68B968F868FFF708
:1035080057F97B69009319231522B968F868FFF702
:103518003BFB32E07B69DB681A46B968F86800F063
:10352800DDF87B691B691A46B968F86800F0D6F8B7
:103538007A68B968F868FFF73BF92322B968F86830
:10354800FFF710F919E07B69DB681A46B968F86873
:1035580000F0C4F87A68B968F868FFF729F97B6958
:103568001B699B6A2422B968F868FFF7E5FA04E04A
:10357800054A7968F868FEF7F3FF00BF1837BD46BB
:1035880080BD00BFECB1020828B2020880B586B041
:1035980000AFF860B9607A603B603A68B968F8686B
:1035A800FFF78AFD7861BB6800229A60BB68012238
:1035B8001A617B69002B0AD10D22B968F868FFF7F8
:1035C800D1F809E00022B968F868FFF7CBF87B6901
:1035D8005A1E7A61012BF5DC2722B968F868FFF7D3
:1035E800C1F800BF1837BD4680BD00BF80B586B0A2
:1035F80000AFF860B9607A603B607B681B78122B7B
:1036080004D0132B20D0032B38D047E07B68DB682D
:103618001A46B968F86800F061F80122B968F868D4
:10362800FFF7A0F87B681B691A46B968F86800F0CC
:1036380055F81F22B968F868FFF794F80322B968AB
:10364800F868FFF78FF834E07B68DB681A46B968DA
:10365800F86800F043F80122B968F868FFF782F8C3
:103668007B681B699B6A2022B968F868FFF764FACF
:103678000322B968F868FFF775F81AE07B689B6A57
:10368800154918461DF03AFD0346002B06D13B6844
:103698007A68B968F868FFF779FF1AE07A68B96854
:1036A800F86800F01BF80D22B968F868FFF75AF8B7
:1036B80000BF3A68B968F868FFF7FEFC786128220D
:1036C800B968F868FFF74EF87A69B968F868FFF7DB
:1036D8005FF81837BD4680BD34B0020890B58DB08C
:1036E80004AFF860B9607A607B681B78033B422BB3
:1036F80000F2D18301A252F823F000BF7939000803
:103708002B38000811380008BB3800084D3800086D
:1037180063380008793800088F380008A538000891
:1037280017390008F33800089F3E00089F3E00083C
:103738009F3E00083B39000895390008C739000842
:10374800F1390008033A0008B13A0008ED3A0008D8
:10375800413A0008293B0008573B00084D3A000849
:103768007F3A0008633B0008713B00087F3B000874
:103778008D3B0008B33C0008A53C0008973C0008B6
:10378800893C00087B3C00086D3C00085F3C000851
:10379800513C0008433C0008353C0008273C000821
:1037A800193C00080B3C0008FD3B0008EF3B0008F3
:1037B800E13B0008D33B0008C53B0008B73B0008C5
:1037C800A93B00089B3B0008EB3D0008993D000819
:1037D8003D3E0008C13C0008CD3C0008DB3C000829
:1037E800E93C0008F73C0008053D0008133D0008C7
:1037F800213D00082F3D00083D3D00084B3D0008D5
:10380800593D0008673D00087A68B968F868FEF70E
:10381800CFFF7B689B6A0822B968F868FFF78CF9C4
:1038280044E37A68B968F868FEF7C2FF7B6803F179
:103838002004D4E900341A462346B968F868FFF72B
:10384800E1F833E37A68B968F868FEF7B1FF0D224A
:10385800B968F868FEF786FF28E37A68B968F868F7
:10386800FEF7A6FF0E22B968F868FEF77BFF1DE396
:103878007A68B968F868FEF79BFF0F22B968F8689C
:10388800FEF770FF12E37A68B968F868FEF790FFF0
:103898001022B968F868FEF765FF07E37A68B96827
:1038A800F868FEF785FF1122B968F868FEF75AFF35
:1038B800FCE27A68B968F868FEF77AFF7B689B6A69
:1038C8000C22B968F868FFF737F97B6803F1200420
:1038D800D4E90034184621461EF08AF803461A46F1
:1038E800B968F868FEF754FFE0E27A68B968F868E2
:1038F800FEF75EFF0B22B968F868FEF733FF7B68B6
:10390800DB681A46B968F868FFF724FBCEE27A68E4
:10391800B968F868FEF74CFF0A22B968F868FEF73C
:1039280021FF7B68DB681A46B968F868FFF792FAE6
:10393800BCE27A68B968F868FEF73AFF7B685968AC
:103948007B68D8687B681C697B685B69BA68D268E1
:10395800029200220192009323460246F868FEF77D
:1039680073FE03461A46B968F868FFF72DF89DE21A
:103978007A68B968F868FEF71BFF7B68009317231D
:103988001322B968F868FFF7FFF88FE27B68DB68F5
:103998001A46B968F868FFF7A1FE7B681B691A46E2
:1039A800B968F868FFF79AFE7A68B968F868FEF7A8
:1039B800FFFE1F22B968F868FEF7D4FE76E27B683E
:1039C800DB681A46B968F868FFF788FE7A68B9684C
:1039D800F868FEF7EDFE7B681B699B6A2022B968D0
:1039E800F868FFF7A9F861E27B68DA687B681B6909
:1039F800B968F868FFF7FAFD58E27B68DB681A4691
:103A0800B968F868FFF76AFE7B681B691A46B968E7
:103A1800F868FFF751FBF8617A68B968F868FEF74B
:103A2800C7FE2922B968F868FEF79CFEFA69B968EA
:103A3800F868FEF7ADFE39E27A68B968F868FFF70A
:103A480041FD33E27B68DB681A46B968F868FFF71E
:103A580053FC7A68B968F868FEF7AAFE2F22B9689D
:103A6800F868FEF77FFE7B68DA680023B968F868B3
:103A7800FFF7A2FC1AE27B68DB681A46B968F868A7
:103A8800FFF73AFC7A68B968F868FEF791FE3022C9
:103A9800B968F868FEF766FE7B68DA680023B968DB
:103AA800F868FFF789FC01E27B68DB681A46B968A9
:103AB800F868FFF721FC7A68B968F868FEF778FEBD
:103AC8003122B968F868FEF74DFE7B68DA68012391
:103AD800B968F868FFF770FC0022B968F868FEF763
:103AE80041FEE3E17B68DB681A46B968F868FFF7CE
:103AF80003FC7A68B968F868FEF75AFE3222B9689A
:103B0800F868FEF72FFE7B68DA680123B968F86861
:103B1800FFF752FC0022B968F868FEF723FEC5E1FA
:103B28007B68DB681A46B968F868FFF7D7FD7A68DA
:103B3800B968F868FEF73CFE0022B968F868FEF735
:103B480011FE0D22B968F868FEF70CFEAEE17A683E
:103B5800B968F868FFF70CF9A8E12B237A68B96807
:103B6800F868FFF737F9A1E12C237A68B968F86893
:103B7800FFF730F99AE12D237A68B968F868FFF7FA
:103B880029F993E12E237A68B968F868FFF722F9D2
:103B98008CE146237A68B968F868FFF737F985E158
:103BA80045237A68B968F868FFF730F97EE144235D
:103BB8007A68B968F868FFF729F977E13F237A68E6
:103BC800B968F868FFF722F970E140237A68B968A4
:103BD800F868FFF71BF969E141237A68B968F86862
:103BE800FFF714F962E142237A68B968F868FFF7C9
:103BF8000DF95BE13B237A68B968F868FFF706F9C5
:103C080054E13C237A68B968F868FFF7FFF84DE19A
:103C18003D237A68B968F868FFF7F8F846E13E236B
:103C28007A68B968F868FFF7F1F83FE147237A68DE
:103C3800B968F868FFF7EAF838E11A237A68B968CA
:103C4800F868FFF7E3F831E138237A68B968F8686B
:103C5800FFF7DCF82AE139237A68B968F868FFF7D2
:103C6800D5F823E13A237A68B968F868FFF7CEF8FF
:103C78001CE136237A68B968F868FFF7C7F815E1D8
:103C880037237A68B968F868FFF7C0F80EE133237C
:103C98007A68B968F868FFF7B9F807E134237A68F1
:103CA800B968F868FFF7B2F800E135237A68B968AF
:103CB800F868FFF7ABF8F9E07A68B968F868FFF7D1
:103CC80019FAF3E033237A68B968F868FFF7CEFB8E
:103CD800ECE034237A68B968F868FFF7C7FBE5E0D9
:103CE80035237A68B968F868FFF7C0FBDEE0362349
:103CF8007A68B968F868FFF7B9FBD7E037237A68BC
:103D0800B968F868FFF7B2FBD0E038237A68B96879
:103D1800F868FFF7ABFBC9E039237A68B968F86837
:103D2800FFF7A4FBC2E03A237A68B968F868FFF79E
:103D38009DFBBBE044237A68B968F868FFF796FBF7
:103D4800B4E045237A68B968F868FFF78FFBADE0FF
:103D580046237A68B968F868FFF788FBA6E07B68AD
:103D6800DB681A46B968F868FFF7B8FC7A68B9687A
:103D7800F868FEF71DFD0022B968F868FEF7F2FC46
:103D88007B681B691A46B968F868FFF7A7FC8DE0DD
:103D98007B68DB681A46B968F868FFF79FFC7A68A1
:103DA800B968F868FEF704FD0122B968F868FEF7FB
:103DB800D9FC5122B968F868FEF76EFFB861002295
:103DC800B968F868FEF7CEFC7B681B691A46B968C3
:103DD800F868FFF783FCBA69B968F868FEF7B6FFB8
:103DE80064E07B68DB681A46B968F868FFF776FC18
:103DF8007A68B968F868FEF7DBFC0122B968F868E8
:103E0800FEF7B0FC5222B968F868FEF745FFB861C2
:103E18000022B968F868FEF7A5FC7B681B691A469A
:103E2800B968F868FFF75AFCBA69B968F868FEF724
:103E38008DFF3BE07B68DB681A46B968F868FFF7D6
:103E48004DFC7A68B968F868FEF7B2FC5122B96887
:103E5800F868FEF721FF78617B685B691A46B968E4
:103E6800F868FFF73BFC5022B968F868FEF714FFC2
:103E7800B8617A69B968F868FEF768FF7B681B69FA
:103E88001A46B968F868FFF729FCBA69B968F8688A
:103E9800FEF75CFF0AE07B681B78184605F06EF8B1
:103EA8000346044A7968F868FEF75AFB00BF2437CE
:103EB800BD4690BD50B2020880B586B000AFF8602C
:103EC800B9603B601346FB710C21F86812F036FFAD
:103ED80078617B69FA791A707B693A6A5A603B683B
:103EE800DA6A7B699A603B687A69DA6200BF1837D8
:103EF800BD4680BD80B584B000AFF860B9607A6017
:103F08003B6018E07B681B78522B06D17B685A68A7
:103F18003B68B968F868FEF7F9FE7B681B78512B97
:103F280006D17B685A68BB69B968F868FEF7EEFE87
:103F38007B689B687B607B68002BE3D100BF1037F0
:103F4800BD4680BD80B483B000AF0346FB71FB79EA
:103F58004B2B0ED0FB794C2B0BD0FB794D2B08D07B
:103F6800FB794E2B05D0FB794F2B02D0FB79502BD8
:103F780001D1012300E0002318460C37BD4680BC60
:103F8800704700BF80B483B000AF0346FB71FB7974
:103F9800012B08D0FB79112B05D0FB790F2B02D010
:103FA800FB79102B01D1012300E0002318460C37C0
:103FB800BD4680BC704700BF80B582B000AF786056
:103FC80039600EE07B68DB689B6A396818461DF02B
:103FD80095F80346002B01D101230AE07B689B6812
:103FE8007B607B68002B03D07B681B78592BE9D05A
:103FF800002318460837BD4680BD00BF80B584B091
:1040080000AFF860B9607A603B6026E07B681B7897
:104018001846FFF7B7FF0346002B22D13B68002B59
:104028000DD17B681B781846FFF78CFF0346002BE1
:1040380003D17B681B78552B0CD17B6813E07B6818
:104048009B6839681846FFF7B7FF0346002B01D075
:104058007B6808E07B689B687B607B68002BD5D118
:1040680000E000BF002318461037BD4680BD00BFE2
:1040780080B584B000AFF860B9607A603B6022E038
:104088007B681B781846FFF77DFF0346002B1ED17F
:104098007B681B781846FFF755FF0346002B0FD0A7
:1040A8003B68002B01D17B6813E07B689B6839680B
:1040B8001846FFF781FF0346002B01D07B6808E014
:1040C8007B689B687B607B68002BD9D100E000BFD0
:1040D800002318461037BD4680BD00BF80B584B0A8
:1040E80000AFF860B9607A600CE07B681B7818460E
:1040F800FFF748FF0346002B01D07B6806E07B688A
:104108009B687B607B68002BEFD100231846103733
:10411800BD4680BD80B586B000AFF860B9603B6031
:104128001346FB713B687B613B689B683B603B685F
:104138001B784F3B082B00F2A18001A252F823F014
:104148008341000883410008854200088542000831
:10415800854200086D410008854200088542000834
:104168000F4200083A68B968F868FEF721FB4E224A
:10417800B968F868FEF7F6FA85E03A68B968F86849
:10418800FEF716FBBB685B68002B1FD0FB79532B2F
:1041980009D0FB79522B06D0FB79512B0DD13A6A05
:1041A8003B689A4209D00322B968F868FEF7DAFA40
:1041B8000022B968F868FEF7D5FAFB79512B5FD170
:1041C8000322B968F868FEF7CDFA59E0FB79532B5A
:1041D80009D10322B968F868FEF7C4FA0022B96861
:1041E800F868FEF7BFFAFB79522B06D0FB79512B02
:1041F80046D13A6A3B689A4242D00022B968F868C8
:10420800FEF7B0FA3CE03A68B968F868FEF7D0FA09
:104218003B68DA687B699A420FD14A22B968F86824
:10422800FEF7A0FA3B689B69002B06D03B689B69A8
:104238001A46B968F86800F01DFA3B685A697B6944
:104248009A421FD13B689B69002B11D04C22B96858
:10425800F868FEF787FA4A22B968F868FEF782FA22
:104268003B689B691A46B968F86800F003FA09E0E8
:104278004C22B968F868FEF775FA03E000BF02E05F
:1042880000BF00E000BF3A683B6A9A427FF44AAF39
:1042980000BF1837BD4680BD80B586B000AFF86056
:1042A800B9607A603B604922B968F868FEF7F4FCA7
:1042B80078613A68B968F86800F0DCF94822B968AA
:1042C800F868FEF74FFA7A69B968F868FEF73EFDB4
:1042D8007A68B968F86800F0CDF94A22B968F868D0
:1042E800FEF740FA3A68B968F86800F0C3F900BF09
:1042F8001837BD4680BD00BF80B586B000AFF860F6
:10430800B9607A603B604922B968F868FEF7C4FC76
:1043180078613A68B968F868FEF75EF9BB68DB68E7
:10432800002B1BD03B689B6A264918461CF0E6FE0A
:104338000346002B04D1244A3968F868FEF710F9BF
:104348003B689B6A214918461CF0D8FE0346002B9F
:1043580004D11F4A3968F868FEF702F93A68B96863
:10436800F868FEF725FA3B689B6A4B22B968F8683B
:10437800FEF7E2FB3A6AB968F86800F07BF94C226C
:10438800B968F868FEF7EEF95022B968F868FEF7E0
:1043980083FC38617A69B968F868FEF7D7FC7A68EF
:1043A800B968F86800F066F94A22B968F868FEF753
:1043B800D9F93A69B968F868FEF7C8FC00BF183738
:1043C800BD4680BDF0AF0208FCAF020834B0020859
:1043D8003CB0020880B588B000AFF860B9607A6078
:1043E8003B604922B968F868FEF756FCF861492233
:1043F800B968F868FEF750FCB861FA6AB968F868F5
:1044080000F038F94822B968F868FEF7ABF9BA69DC
:10441800B968F868FEF79AFCBB68DB68002B20D007
:104428003A68B968F868FEF7D7F83B689B6A2C4980
:1044380018461CF063FE0346002B04D1294A39684C
:10444800F868FEF78DF83B689B6A274918461CF008
:1044580055FE0346002B04D1244A3968F868FEF754
:104468007FF83A68B968F868FEF7A2F93B689B6A72
:104478004B22B968F868FEF75FFBBA6AB968F86852
:1044880000F0F8F84C22B968F868FEF76BF94A2290
:10449800B968F868FEF766F95022B968F868FEF757
:1044A800FBFB7861FA69B968F868FEF74FFC7A682F
:1044B800B968F86800F0DEF84A22B968F868FEF7CB
:1044C80051F97A69B968F868FEF740FCFA6AB96880
:1044D800F86800F0CFF800BF2037BD4680BD00BFA8
:1044E800F0AF0208FCAF020834B002083CB0020882
:1044F80080B588B000AFF860B9607A603B6000238F
:10450800BB617A68B968F868FFF7E8F83B68FB614F
:1045180028E0FB69DB683B613B691B785B2B0AD1B0
:10452800BB69002B04D0394A3969F868FEF718F8D6
:104538003B69BB6113E03B69DB681A46B968F868F8
:10454800FFF7CCF83A69B968F868FEF731F9432201
:10455800B968F868FEF7A0FB02463B691A63FB6975
:104568001B69FB61FB69002BD3D10022B968F8688D
:10457800FEF7F8F8BB69002B0FD0BA69B968F8687C
:10458800FEF716F95022B968F868FEF785FB02466F
:10459800BB691A6300237B6105E05022B968F8689B
:1045A800FEF77AFB78613B68FB611FE0FB69DB681B
:1045B8003B613B691B6B1A46B968F868FEF7C6FB96
:1045C8003B691B785B2B07D13B69DB681A46B968E6
:1045D800F86800F0B7FC06E03B691B691A46B96841
:1045E800F86800F0AFFCFB691B69FB61FB69002BF5
:1045F800DCD17B69002B04D07A69B968F868FEF7CA
:10460800A5FB00BF2037BD4680BD00BF6CB20208C5
:1046180080B588B002AFF860B9607A6023E07B6843
:10462800DB687B617B691B69002B19D07B691B697F
:104638001A46B968F868FFF751F87A69B968F868EE
:10464800FEF7B6F87B69DB68009318231422B96873
:10465800F868FEF799FA0022B968F868FEF782F858
:104668007B681B697B607B68002BD8D100BF18373B
:10467800BD4680BD90B58DB002AFF860B9607A6074
:104688007A68B968F868FEF793F87B681B78013B8D
:10469800582B00F22A8401A252F823F03B4F00085D
:1046A800F34E0008F34E0008F34E0008F34E0008DE
:1046B800F34E0008F34E0008F34E0008F34E0008CE
:1046C800F34E0008F34E0008F34E0008F34E0008BE
:1046D800F34E0008F34E0008F34E0008F34E0008AE
:1046E800F34E0008F34E0008F34E0008F34E00089E
:1046F800F34E0008F34E0008F34E0008F34E00088E
:10470800F34E0008F34E0008F34E0008F34E00087D
:10471800F34E0008F34E0008F34E0008F34E00086D
:10472800F34E0008F34E0008F34E0008F34E00085D
:10473800F34E0008F34E0008F34E0008F34E00084D
:10474800F34E0008F34E0008F34E0008F34E00083D
:10475800F34E0008F34E0008F34E0008F34E00082D
:10476800F34E0008F34E0008F34E0008F34E00081D
:10477800F34E0008F34E0008F34E0008F34E00080D
:10478800F34E0008F34E0008F34E0008F34E0008FD
:10479800F34E0008F34E0008F34E0008F34E0008ED
:1047A800F34E0008F34E0008F34E0008F34E0008DD
:1047B800F34E000809480008194800084348000853
:1047C80053480008054900086B490008E7490008F4
:1047D800E7490008D94A0008D94A0008C94C000826
:1047E800334C00085F4D0008EB4D0008A94B00084A
:1047F800C74D00084D4E0008DD4E0008D94B000893
:104808007B68DB681A46B968F86800F09BFB95E39B
:10481800BB685B68002B00F08E837A68B968F8681B
:10482800FDF7C6FF0022B968F868FDF79BFF0D2267
:10483800B968F868FDF796FF7DE37B68DB681A4680
:10484800B968F868FFF7E4FE78E37B685B69002BDA
:1048580035D07B68DB681A46B968F868FEF73EFF12
:104868007A68B968F868FDF7A3FF5122B968F86853
:10487800FEF712FAF8617B685B691A46B968F8684E
:10488800FFF7F8FE7A68B968F868FDF791FF5022DB
:10489800B968F868FEF700FA3862FA69B968F86822
:1048A800FEF754FA7B681B691A46B968F868FFF77F
:1048B800E1FE3A6AB968F868FEF748FA3EE37B68B1
:1048C800DB681A46B968F868FEF708FF7A68B968BD
:1048D800F868FDF76DFF5222B968F868FEF7DCF951
:1048E80038627B681B691A46B968F868FFF7C2FE28
:1048F8003A6AB968F868FEF729FA1FE3B968F868F0
:10490800FEF7BEF9B8617B68DB681A46B968F868D3
:10491800FFF7B0FEB968F868FEF7B2F978617B680E
:104928001B691A46B968F868FEF7D8FE7A68B9684C
:10493800F868FDF73DFFBB695122B968F868FEF7D2
:10494800C3F97B68DC6AB968F868FEF799F902462A
:104958007B69009313462246B968F868FFF7CAFADC
:10496800ECE2B968F868FEF78BF9B8617B68DB6838
:104978001A46B968F868FEF7B1FE7A68B968F86847
:10498800FDF716FF5222B968F868FEF785F9386214
:104998007B681B691A46B968F868FFF76BFE7A6886
:1049A800B968F868FDF704FFBB695022B968F86870
:1049B800FEF78AF93A6AB968F868FEF7C7F97B68BA
:1049C800DC6AB968F868FEF75BF90246BB690093D0
:1049D80013462246B968F868FFF78CFAAEE27B689E
:1049E8001B784E2B07D17B68DB681A46B968F868D4
:1049F800FFF70EFE0FE07B68DB68002B0BD07B68AF
:104A0800DB681A46B968F868FEF768FE0022B968DC
:104A1800F868FDF7A7FEB968F868FEF731F9B861DC
:104A28007B681B69002B12D07B681B691A46B96822
:104A3800F868FEF753FE7A68B968F868FDF7B8FEBB
:104A48005222B968F868FEF727F9386201E00023B6
:104A58003B627B689B691A46B968F868FFF70AFEEB
:104A6800B968F868FEF70CF978617B685B69002B18
:104A78000BD07B685B691A46B968F868FEF72EFEAA
:104A88000022B968F868FDF76DFE7A68B968F868B9
:104A9800FDF78EFEBB695022B968F868FEF714F975
:104AA8003B6A002B04D03A6AB968F868FEF74EF9F9
:104AB8007B68DC6AB968F868FEF7E2F802467B6949
:104AC800009313462246B968F868FFF713FA35E2EF
:104AD8007B681B691A46B968F868FEF7FFFD7A68B3
:104AE800B968F868FDF764FE2522B968F868FDF72B
:104AF80039FEB968F868FEF7C3F8B8617A68B9682A
:104B0800F868FDF755FE2622B968F868FDF72AFE11
:104B18005222B968F868FEF7BFF838627A68B9684F
:104B2800F868FEF751FBBB685B68002B11D00322C5
:104B3800B968F868FDF716FE7B685B691A46B968BC
:104B4800F868FFF797FD0322B968F868FDF70AFED1
:104B580006E07B685B691A46B968F868FFF78AFD62
:104B68007A68B968F868FDF723FEBB695022B9680E
:104B7800F868FEF7A9F83A6AB968F868FEF7E6F83F
:104B88007B68DC6AB968F868FEF77AF80246BB69A0
:104B9800009313462246B968F868FFF7ABF9CDE1F0
:104BA8007B68DA687B681B69B968F868FFF7A0FC5E
:104BB8007B68DC6AB968F868FEF762F80246002389
:104BC800009313462246B968F868FFF793F9B5E1F0
:104BD8007B681B691A46B968F868FFF74BFD02E065
:104BE8007B681B697B607B681B78592BF8D07B68D6
:104BF8001B781846FFF7A6F90346002B40F09D8165
:104C08007B681B78552B00F098817B68DC6AB96853
:104C1800F868FEF735F8024600230093134622464B
:104C2800B968F868FFF766F987E17B68DB68002BED
:104C38001BD07B68DB681A46B968F868FDF7CCFCBE
:104C48007B689A687B68DB689B6AB968F868FFF7D5
:104C5800D5F978627B6A002B17D17B68DB689B6A81
:104C6800964A7968F868FDF77BFC7B689A680023A8
:104C7800B968F868FFF7C2F978627B6A002B04D13B
:104C88008F4A7968F868FDF76BFC7B6A00937B684C
:104C98005222B968F868FFF73DFA7A68B968F86887
:104CA800FDF786FD5022B968F868FDF7F5FF034661
:104CB80000937B6A5222B968F868FFF7FDF83DE176
:104CC8007B68DB68002B1BD07B68DB681A46B968F9
:104CD800F868FDF781FC7B689A687B68DB689B6AEB
:104CE800B968F868FFF7C4F978627B6A002B17D1B6
:104CF8007B68DB689B6A734A7968F868FDF730FC63
:104D08007B689A680023B968F868FFF7B1F9786298
:104D18007B6A002B04D16C4A7968F868FDF720FC9F
:104D28007B6A00937B685122B968F868FFF7F2F94B
:104D38007A68B968F868FDF73BFD5022B968F868E9
:104D4800FDF7AAFF034600937B6A5122B968F86809
:104D5800FFF7B2F8F2E07B68DB68002B07D07B68CE
:104D6800DB681A46B968F868FEF7B8FC04E00D225B
:104D7800B968F868FDF7F6FC7B689B681A46B9685D
:104D8800F868FFF7ABF978627B6A002B04D14F4AC9
:104D98007968F868FDF7E4FB7B6A00937B68532227
:104DA800B968F868FFF7B6F97A68B968F868FDF77E
:104DB800FFFC5322B968F868FDF7D4FCBEE07B68B5
:104DC800DB681A46B968F868FEF788FC7A68B9683B
:104DD800F868FDF7EDFC4822B968F868FDF7C2FCF1
:104DE800ACE0BB6800229A60BB68DB68002B06D089
:104DF8007B68DB68364A1946F868FDF7B1FB7B68C3
:104E0800DB681A46B968F868FEF768FC7A68B9681A
:104E1800F868FDF7CDFC4D22B968F868FDF7A2FCEB
:104E28007B681B691A46B968F868FFF723FC7A683B
:104E3800B968F868FDF7BCFC4E22B968F868FDF758
:104E480091FC7BE07A68B968F868FDF7B1FC7B688B
:104E58001B69002B28D07B685B69002B24D0BB68BA
:104E680000229A607B689B69002B10D07B68D96808
:104E78007B6818697B685B697A689269019200931C
:104E880003460A46B968F868FFF7A4FA15E07B6894
:104E9800DA687B6819697B685B6900930B46B968B7
:104EA800F868FFF729FA08E07B68DA687B689B698D
:104EB800B968F868FFF7F0F940E03FE094B20208FB
:104EC800B0B20208E0B2020800B3020820B3020838
:104ED80038B302087A68B968F868FDF769FC4F22A8
:104EE800B968F868FDF73EFC28E0BB685B68002BF2
:104EF8000FD07A68B968F868FDF75AFC0022B968DB
:104F0800F868FDF72FFC7A68B968F868FEF7E6FBE1
:104F180014E07A68B968F868FEF7E0FB7A68B9685F
:104F2800F868FDF745FC0022B968F868FDF71AFC37
:104F380004E000BF02E000BF00E000BF00BF2C3764
:104F4800BD4690BD80B584B000AFF860B9607A60A6
:104F580009E07B68DB681A46B968F868FFF78AFBDE
:104F68007B681B697B607B68002BF2D100BF103720
:104F7800BD4680BD80B485B000AF78600023FB607B
:104F880005E0FB680133FB607B681B697B607B681D
:104F9800002BF6D1FB6818461437BD4680BC704715
:104FA80080B584B000AFF860B9607A603B6078681B
:104FB800FFF7E0FF0246BB685A6110E07B68DB68D8
:104FC8001A46B968F868FDF707FB7B68DA680023BA
:104FD800B968F868FDF730FC7B681B697B607B6803
:104FE800002BEBD100BF1037BD4680BD80B584B023
:104FF80000AFF860B9607A607B681B78002B0ED12F
:1050080009E07B68DB681A46B968F868FFF7EEFFC5
:105018007B681B697B607B68002BF2D147E07B686B
:105028001B781846FEF7AEFF0346002B3ED17B687F
:105038001B78462B0DD17B68DB681A46B968F8687F
:10504800FDF7CAFA7B68DA680123B968F868FDF7E2
:10505800F3FB7B68DB68002B06D07B68DB681A46AD
:10506800B968F868FFF7C2FF7B681B69002B06D098
:105078007B681B691A46B968F868FFF7B7FF7B6851
:105088005B69002B06D07B685B691A46B968F868CB
:10509800FFF7ACFF7B689B69002B08D07B689B6996
:1050A8001A46B968F868FFF7A1FF00E000BF10379B
:1050B800BD4680BD90B58BB004AFF860B9607A602A
:1050C80043E07B68DB687B617B691B78012B39D106
:1050D8007A69B968F868FDF76BFB7B6959687B6981
:1050E800D8687B691C697B695B69BA68D268029277
:1050F80000220192009323460246F868FDF7A4FABD
:1051080003461A46B968F868FDF75EFC7A69B9681B
:10511800F868FDF74DFB1422B968F868FDF722FB23
:105128007B69DA680023B968F868FDF785FB0346F0
:105138001A46B968F868FDF72BFB0022B968F868C9
:10514800FDF710FB7B681B697B607B68002BB8D17F
:1051580000BF1C37BD4690BD80B584B000AFF86075
:10516800B9607A603B60BB6801229A60BB68002224
:105178001A61BB685B68002B02D0BB6800229A608A
:10518800BB69002B19D0BB691B78002B15D1BB69F3
:10519800DB68002B11D0BB69DB681B78052B0CD1B1
:1051A800BB69DB689B6A3A4918461BF0A7FF0346B0
:1051B800002B02D1BB680122DA60BB681A6CBB689D
:1051C8005A647B683A68B968F868FFF7E9FEBB6912
:1051D800002B09D0BA69B968F868FFF707FFBA6900
:1051E800B968F868FFF766FF7B68002B29D07A68F2
:1051F800B968F868FDF7F0F97B689B6A1A46B968E0
:10520800F868FDF7B9FB0346002B1ADA1222B968D1
:10521800F868FDF7A7FA1422B968F868FDF7A2FA4A
:1052280000237A68B968F868FDF706FB03461A4652
:10523800B968F868FDF7ACFA0022B968F868FDF7B4
:1052480091FABB685B68002B0FD00D22B968F8682B
:10525800FDF788FABA69B968F868FFF773FE532250
:10526800B968F868FDF77EFA0EE0BA69B968F868B7
:10527800FFF768FE0D22B968F868FDF773FA532244
:10528800B968F868FDF76EFA00BF1037BD4680BDF3
:105298006CB3020890B587B004AF786039603B689A
:1052A80059683B68D8683B681C693B685B697A68E1
:1052B800926902920022019200932346024678687E
:1052C800FDF7C2F9034618460C37BD4690BD00BF2E
:1052D80080B588B004AFF860B9607A60BB68002B0D
:1052E80002D0BB68596800E000217B680293012363
:1052F8000193BB68009300230022F868FDF7A4F926
:10530800034618461037BD4680BD00BF00000000A8
:1053180098B500AF00201FF04DFE034618461CF05C
:1053280051F84FF00002044B1CF0B2F803460C464B
:105338001846214698BD00BF00408F4090B585B003
:1053480000AF1A4B1B68002B28D000201FF032FE3C
:1053580003467B603B1D18461DF044FF0346184674
:105368001EF066FAF8603B1D18461EF009F8034661
:1053780018461EF05DFAB860BA68FB68D31A4FF495
:105388007A7202FB03F318461CF01CF803460C461D
:10539800074AC2E90034054B00221A60044B18CBB7
:1053A800184621461437BD4690BD00BF4400002072
:1053B800600B002090B482B000AFC7E900014FF045
:1053C80000034FF00004184621460837BD4690BC3C
:1053D800704700BF90B585B000AFC7E90201C7E9C3
:1053E8000023D7E90023D7E9020121F005FDC7E929
:1053F80002014FF000024FF00003D7E902011CF050
:10540800B9FA0346002B09D0D7E90023D7E90201EE
:105418001BF08CFE03460C46C7E90234D7E9023478
:10542800184621461437BD4690BD00BF90B583B0DD
:1054380000AFC7E900010CA3D3E90023D7E90001B5
:105448001CF050F903460C461846214621F0A4FAF0
:1054580003460C46184621461CF0CAFA034618466D
:105468000C37BD4690BD00BF000000007099944104
:1054780090B583B000AFC7E9000107A3D3E90023C3
:10548800D7E90001FFF7A6FF03460C461846214658
:105498000C37BD4690BD00BF0000000070999441D4
:1054A80080B483B000AF78607B6803F00303002BFF
:1054B8001DD17A68114B83FB02135911D317CB1AEC
:1054C800642101FB03F3D31A002B0DD17A680B4B2F
:1054D80083FB0213D911D317CB1A4FF4C87101FB00
:1054E80003F3D31A002B02D14FF4B77301E040F253
:1054F8006D1318460C37BD4680BC70471F85EB51AD
:10550800B0B582B000AF78607B68A3F2B27340F2A6
:105518006D1202FB03F318461BF054FF04460D46B8
:105528007B68A3F2B17318461BF04CFF4FF00002E2
:10553800274B1CF0D7F802460B461046194621F0B7
:105548002BFA02460B46204629461BF0EFFD034680
:105558000C4625461C467B68A3F26D7318461BF063
:1055680031FF4FF000021B4B1CF0BCF802460B4603
:105578001046194621F010FA02460B4620462946E5
:105588001BF0D2FD03460C4625461C467B68A3F259
:10559800416318461BF016FF4FF000020E4B1CF03B
:1055A800A1F802460B461046194621F0F5F90246C5
:1055B8000B46204629461BF0B9FD03460C46184603
:1055C80021461CF015FA034618460837BD46B0BDFB
:1055D80000001040000059400000794090B583B0A9
:1055E80000AF78607868FFF78BFF034618461BF01A
:1055F800E9FE07A3D3E900231BF04AFF03460C4644
:10560800184621460C37BD4690BD00BFAFF3008059
:10561800000000007099944190B587B000AFC7E9C9
:10562800000129A3D3E90023D7E900011CF05AF8A7
:1056380003460C461846214621F0AEF924A3D3E9C7
:1056480000231BF073FD03460C46184621461CF048
:10565800CFF903467B617869FFF7C0FFC7E902010C
:10566800D7E90023D7E902011CF0A2F90346002B71
:1056780003D07B69013B7B6121E07869FFF710FF6C
:10568800034618461BF09EFE13A3D3E900231BF024
:10569800FFFE03460C4618462146D7E902231BF0B5
:1056A80045FD03460C4618462146D7E900231CF061
:1056B8006BF90346002B02D07B6901337B617B6960
:1056C80018461C37BD4690BD0000007FC3631D42CD
:1056D8000000000000C89E4000000000709994413E
:1056E80080B582B000AFC7E90001D7E90001FFF734
:1056F80093FF03461846FFF7D3FE0346B3F5B77F7B
:105708000CBF01230023DBB218460837BD4680BD15
:1057180090B583B000AFC7E90001D7E90001FFF7F2
:1057280085FE0446D7E90001FFF776FF03461846D1
:10573800FFF7E6FE0346E31A18460C37BD4690BD50
:1057480080B584B000AFC7E90001D7E90001FFF7D1
:10575800DFFFF860D7E90001FFF7C2FFB860FB6818
:105768001E2B01DC002350E0BB6803F13B02FB6801
:105778009A4201DD012348E0BB6803F15A02FB6845
:105788009A4201DD022340E0BB6803F17802FB681E
:105798009A4201DD032338E0BB6803F19702FB68F6
:1057A8009A4201DD042330E0BB6803F1B502FB68CF
:1057B8009A4201DD052328E0BB6803F1D402FB68A7
:1057C8009A4201DD062320E0BB6803F1F302FB687F
:1057D8009A4201DD072318E0BB6803F21112FB6847
:1057E8009A4201DD082310E0BB6803F59872FB6854
:1057F8009A4201DD092308E0BB6803F5A772FB683C
:105808009A4201DD0A2300E00B2318461037BD46F3
:1058180080BD00BF80B584B000AFC7E90001D7E9FB
:105828000001FFF775FFF860D7E90001FFF758FF9F
:10583800B860D7E90001FFF783FF03460A2B55D864
:1058480001A252F823F000BF7D58000883580008D1
:105858008958000895580008A1580008AD58000854
:10586800B9580008C5580008D1580008DD58000884
:10587800E9580008FB6801333DE0FB681E3B3AE04D
:10588800FB68A3F13A02BB68D31A34E0FB68A3F1C2
:105898005902BB68D31A2EE0FB68A3F17702BB68F4
:1058A800D31A28E0FB68A3F19602BB68D31A22E05A
:1058B800FB68A3F1B402BB68D31A1CE0FB68A3F130
:1058C800D302BB68D31A16E0FB68A3F1F202BB68E7
:1058D800D31A10E0FB68A3F58872BB68D31A0AE0F4
:1058E800FB68A3F22F12BB68D31A04E0FB68A3F28B
:1058F8004D12BB68D31A18461037BD4680BD00BF8D
:1059080090B583B000AFC7E90001D7E90001FFF700
:105918008DFD0346043318461BF054FD4FF000027A
:10592800064BFFF757FD03460C46184621461CF068
:105938005FF8034618460C37BD4690BD00001C4072
:10594800B0B582B000AFC7E90001FFF7F7FCD7E9AF
:1059580000231BF0EBFB03460C4625461C46D7E903
:105968000001FFF727FD02460B46204629461BF09B
:10597800DDFB03460C46184621460837BD46B0BD38
:10598800B0B582B000AFC7E90001FFF7D7FC034606
:105998000C461A462346D7E900011BF0C5FB03460F
:1059A8000C4625461C46FFF7C9FC02460B46D7E9BC
:1059B80000011BF0B9FB02460B4610461946FFF7DB
:1059C800F9FC02460B46204629461BF0ADFB034670
:1059D8000C46184621460837BD46B0BD90B583B081
:1059E80000AFC7E900010EA3D3E90023D7E90001FE
:1059F8001BF078FE03460C461846214620F0CCFFE3
:105A08004FF00002084BFFF7E5FC03460C4618462A
:105A180021461BF0EDFF034618460C37BD4690BDE6
:105A28000000000040774B410000384090B583B03B
:105A380000AFC7E900010EA3D3E90023D7E90001AD
:105A48001BF050FE03460C461846214620F0A4FFE2
:105A58004FF00002084BFFF7BDFC03460C46184602
:105A680021461BF0C5FF034618460C37BD4690BDBE
:105A780000000000004CED4000004E4090B583B09F
:105A880000AFC7E900014FF000020D4BD7E9000154
:105A98001BF028FE03460C461846214620F07CFFE2
:105AA8004FF00002074BFFF795FC03460C461846DB
:105AB80021461BF09DFF034618460C37BD4690BD96
:105AC80000408F4000004E4090B583B000AFC7E95A
